{
  "contractName": "TheftPrevention",
  "abi": [
    {
      "anonymous": false,
      "inputs": [
        {
          "indexed": false,
          "internalType": "uint256",
          "name": "imei",
          "type": "uint256"
        }
      ],
      "name": "Found",
      "type": "event"
    },
    {
      "anonymous": false,
      "inputs": [
        {
          "indexed": false,
          "internalType": "uint256",
          "name": "index",
          "type": "uint256"
        },
        {
          "indexed": false,
          "internalType": "uint256",
          "name": "imei",
          "type": "uint256"
        },
        {
          "indexed": false,
          "internalType": "bool",
          "name": "stolen",
          "type": "bool"
        }
      ],
      "name": "NewPhone",
      "type": "event"
    },
    {
      "anonymous": false,
      "inputs": [
        {
          "indexed": false,
          "internalType": "uint256",
          "name": "imei",
          "type": "uint256"
        }
      ],
      "name": "Stolen",
      "type": "event"
    },
    {
      "inputs": [
        {
          "internalType": "uint256",
          "name": "imei",
          "type": "uint256"
        }
      ],
      "name": "registerPhone",
      "outputs": [],
      "stateMutability": "nonpayable",
      "type": "function"
    },
    {
      "inputs": [
        {
          "internalType": "uint256",
          "name": "imei",
          "type": "uint256"
        }
      ],
      "name": "markStolen",
      "outputs": [],
      "stateMutability": "nonpayable",
      "type": "function"
    },
    {
      "inputs": [
        {
          "internalType": "uint256",
          "name": "imei",
          "type": "uint256"
        }
      ],
      "name": "markFound",
      "outputs": [],
      "stateMutability": "nonpayable",
      "type": "function"
    },
    {
      "inputs": [],
      "name": "findStolen",
      "outputs": [
        {
          "components": [
            {
              "internalType": "uint256",
              "name": "imei",
              "type": "uint256"
            },
            {
              "internalType": "bool",
              "name": "stolen",
              "type": "bool"
            }
          ],
          "internalType": "struct TheftPrevention.Phone[]",
          "name": "",
          "type": "tuple[]"
        }
      ],
      "stateMutability": "view",
      "type": "function",
      "constant": true
    }
  ],
  "bytecode": "0x608060405234801561001057600080fd5b50610b75806100206000396000f3fe608060405234801561001057600080fd5b506004361061004c5760003560e01c8063044a9ae914610051578063102f7f941461006d578063537b12f714610089578063a5338266146100a5575b600080fd5b61006b600480360381019061006691906108f8565b6100c3565b005b610087600480360381019061008291906108f8565b6102a3565b005b6100a3600480360381019061009e91906108f8565b61062f565b005b6100ad61085f565b6040516100ba9190610a02565b60405180910390f35b6000808054905014156101415760006040518060400160405280600081526020016000151581525090806001815401808255809150506001900390600052602060002090600202016000909190919091506000820151816000015560208201518160010160006101000a81548160ff02191690831515021790555050505b600060036000838152602001908152602001600020541461016157600080fd5b600060405180604001604052808381526020016000151581525090806001815401808255809150506001900390600052602060002090600202016000909190919091506000820151816000015560208201518160010160006101000a81548160ff0219169083151502179055505050600060016000805490506101e49190610aaf565b9050806003600084815260200190815260200160002081905550336002600084815260200190815260200160002060006101000a81548173ffffffffffffffffffffffffffffffffffffffff021916908373ffffffffffffffffffffffffffffffffffffffff1602179055507f200a3fdbd33c98b17610fbe8a25cbea9dfa4d39cf9196ce011bd54ef8b76c7b2600360008481526020019081526020016000205483600060405161029793929190610a3f565b60405180910390a15050565b3373ffffffffffffffffffffffffffffffffffffffff166002600083815260200190815260200160002060009054906101000a900473ffffffffffffffffffffffffffffffffffffffff1673ffffffffffffffffffffffffffffffffffffffff161461030e57600080fd5b60011515600060036000848152602001908152602001600020548154811061035f577f4e487b7100000000000000000000000000000000000000000000000000000000600052603260045260246000fd5b906000526020600020906002020160010160009054906101000a900460ff1615151461038a57600080fd5b6000806003600084815260200190815260200160002054815481106103d8577f4e487b7100000000000000000000000000000000000000000000000000000000600052603260045260246000fd5b9060005260206000209060020201905060008160010160006101000a81548160ff0219169083151502179055506000600180805490506104189190610aaf565b9050600060018281548110610456577f4e487b7100000000000000000000000000000000000000000000000000000000600052603260045260246000fd5b90600052602060002090600202019050600060046000868152602001908152602001600020549050600181815481106104b8577f4e487b7100000000000000000000000000000000000000000000000000000000600052603260045260246000fd5b90600052602060002090600202016000808201600090556001820160006101000a81549060ff021916905550508160018281548110610520577f4e487b7100000000000000000000000000000000000000000000000000000000600052603260045260246000fd5b9060005260206000209060020201600082015481600001556001820160009054906101000a900460ff168160010160006101000a81548160ff0219169083151502179055509050508060046000846000015481526020019081526020016000208190555060018054806105bc577f4e487b7100000000000000000000000000000000000000000000000000000000600052603160045260246000fd5b60019003818190600052602060002090600202016000808201600090556001820160006101000a81549060ff0219169055505090557fb9152040d84adfd076b657efae7bb6ad642c20d5f44ed7e6fe5bd37f981ea98a856040516106209190610a24565b60405180910390a15050505050565b3373ffffffffffffffffffffffffffffffffffffffff166002600083815260200190815260200160002060009054906101000a900473ffffffffffffffffffffffffffffffffffffffff1673ffffffffffffffffffffffffffffffffffffffff161461069a57600080fd5b6000151560006003600084815260200190815260200160002054815481106106eb577f4e487b7100000000000000000000000000000000000000000000000000000000600052603260045260246000fd5b906000526020600020906002020160010160009054906101000a900460ff1615151461071657600080fd5b600080600360008481526020019081526020016000205481548110610764577f4e487b7100000000000000000000000000000000000000000000000000000000600052603260045260246000fd5b9060005260206000209060020201905060018160010160006101000a81548160ff0219169083151502179055506001819080600181540180825580915050600190039060005260206000209060020201600090919091909150600082015481600001556001820160009054906101000a900460ff168160010160006101000a81548160ff02191690831515021790555050506000600180805490506108099190610aaf565b90508060046000858152602001908152602001600020819055507f6009b4228a9952cbf04a8ebbd80f931efb8053ad815f7fb937aa0812ac2433fc836040516108529190610a24565b60405180910390a1505050565b60606001805480602002602001604051908101604052809291908181526020016000905b828210156108da5783829060005260206000209060020201604051806040016040529081600082015481526020016001820160009054906101000a900460ff16151515158152505081526020019060010190610883565b50505050905090565b6000813590506108f281610b28565b92915050565b60006020828403121561090a57600080fd5b6000610918848285016108e3565b91505092915050565b600061092d83836109b5565b60408301905092915050565b600061094482610a86565b61094e8185610a9e565b935061095983610a76565b8060005b8381101561098a5781516109718882610921565b975061097c83610a91565b92505060018101905061095d565b5085935050505092915050565b6109a081610ae3565b82525050565b6109af81610ae3565b82525050565b6040820160008201516109cb60008501826109e4565b5060208201516109de6020850182610997565b50505050565b6109ed81610aef565b82525050565b6109fc81610aef565b82525050565b60006020820190508181036000830152610a1c8184610939565b905092915050565b6000602082019050610a3960008301846109f3565b92915050565b6000606082019050610a5460008301866109f3565b610a6160208301856109f3565b610a6e60408301846109a6565b949350505050565b6000819050602082019050919050565b600081519050919050565b6000602082019050919050565b600082825260208201905092915050565b6000610aba82610aef565b9150610ac583610aef565b925082821015610ad857610ad7610af9565b5b828203905092915050565b60008115159050919050565b6000819050919050565b7f4e487b7100000000000000000000000000000000000000000000000000000000600052601160045260246000fd5b610b3181610aef565b8114610b3c57600080fd5b5056fea26469706673582212206fc73aa177c5610fabed14b3d2c2bfd577793663e410f581590bf9e9d3b1cdc764736f6c63430008000033",
  "immutableReferences": {},
  "source": "// SPDX-License-Identifier: GPL-3.0\r\npragma solidity ^0.8.0;\r\n\r\ncontract TheftPrevention {\r\n    event NewPhone(uint index, uint imei, bool stolen);\r\n    event Stolen(uint256 imei);\r\n    event Found(uint256 imei);\r\n\r\n    struct Phone {\r\n        uint256 imei;\r\n        bool stolen;\r\n    }\r\n\r\n    Phone[] phones;\r\n    Phone[] stolen;\r\n\r\n    mapping (uint256 => address) imeiToOwner;\r\n    mapping (uint256 => uint256) imeiToIndex;\r\n    mapping (uint256 => uint256) imeiToStolenIndex;\r\n\r\n    /* \r\n     * Register a new phone.\r\n     * Update mappings.\r\n     * Check whether imei is already registered.\r\n     */\r\n    function registerPhone (uint256 imei) public {\r\n        if(phones.length == 0)\r\n            phones.push(Phone(0, false)); // since default index mapping is 0, we ensure that no phone can be mapped to the 0th index.\r\n        require(imeiToIndex[imei] == 0);\r\n\r\n        phones.push(Phone(imei, false));\r\n        uint id = phones.length - 1;\r\n        imeiToIndex[imei] = id;\r\n        imeiToOwner[imei] = msg.sender;\r\n        emit NewPhone(imeiToIndex[imei], imei, false);\r\n    }\r\n\r\n    /*\r\n     * Mark phone as stolen.\r\n     * Check validity of caller.\r\n     * Check phone status.\r\n     */\r\n    function markStolen (uint256 imei) public {\r\n        require(imeiToOwner[imei] == msg.sender);\r\n        require(phones[imeiToIndex[imei]].stolen == false);\r\n\r\n        Phone storage phone = phones[imeiToIndex[imei]];\r\n        phone.stolen = true;\r\n\r\n        stolen.push(phone);\r\n        uint id = stolen.length - 1;\r\n        imeiToStolenIndex[imei] = id;\r\n\r\n        emit Stolen(imei);\r\n    }\r\n\r\n    /*\r\n     * Mark phone as found.\r\n     * Check validity of caller.\r\n     * Check phone status.\r\n     */\r\n    function markFound (uint256 imei) public {\r\n        require(imeiToOwner[imei] == msg.sender);\r\n        require(phones[imeiToIndex[imei]].stolen == true);\r\n\r\n        Phone storage phone = phones[imeiToIndex[imei]];\r\n        phone.stolen = false;\r\n\r\n        uint idLast = stolen.length - 1;\r\n        Phone storage lastStolen = stolen[idLast];\r\n\r\n        uint idFound = imeiToStolenIndex[imei];\r\n        delete stolen[idFound]; // delete phone that was found\r\n\r\n        stolen[idFound] = lastStolen; // move last stolen phone to the gap in the array\r\n        imeiToStolenIndex[lastStolen.imei] = idFound; // change mapping\r\n        stolen.pop(); // pop the duplicate element\r\n\r\n        emit Found(imei);\r\n    }\r\n\r\n    function findStolen() public view returns(Phone[] memory){\r\n        return stolen;\r\n    }\r\n}\r\n\r\n//Contract Address: 0xB25A9F4DB4aD0E1C241fe36DbE1707e084aD86ED",
  "sourcePath": "C:\\Users\\krish\\OneDrive\\Documents\\projects\\web3lab\\contracts\\TheftPrevention.sol",
  "compiler": {
    "name": "solc",
    "version": "0.8.0+commit.c7dfd78e.Emscripten.clang"
  },
  "schemaVersion": "3.4.11",
  "updatedAt": "2022-12-11T20:19:53.936Z",
  "networkType": "ethereum",
  "devdoc": {
    "kind": "dev",
    "methods": {},
    "version": 1
  },
  "userdoc": {
    "kind": "user",
    "methods": {},
    "version": 1
  }
}